{
  "_format": "hh-sol-artifact-1",
  "contractName": "TeamPiggyBank",
  "sourceName": "contracts/TeamPiggyBank.sol",
  "abi": [
    {
      "inputs": [],
      "stateMutability": "nonpayable",
      "type": "constructor"
    },
    {
      "anonymous": false,
      "inputs": [
        {
          "indexed": true,
          "internalType": "address",
          "name": "contributor",
          "type": "address"
        },
        {
          "indexed": false,
          "internalType": "uint256",
          "name": "amount",
          "type": "uint256"
        }
      ],
      "name": "Deposit",
      "type": "event"
    },
    {
      "anonymous": false,
      "inputs": [
        {
          "indexed": true,
          "internalType": "address",
          "name": "member",
          "type": "address"
        },
        {
          "indexed": false,
          "internalType": "uint256",
          "name": "amount",
          "type": "uint256"
        }
      ],
      "name": "EmergencyWithdraw",
      "type": "event"
    },
    {
      "anonymous": false,
      "inputs": [
        {
          "indexed": false,
          "internalType": "uint256",
          "name": "newGoal",
          "type": "uint256"
        }
      ],
      "name": "GoalSet",
      "type": "event"
    },
    {
      "anonymous": false,
      "inputs": [
        {
          "indexed": true,
          "internalType": "address",
          "name": "member",
          "type": "address"
        }
      ],
      "name": "MemberAdded",
      "type": "event"
    },
    {
      "anonymous": false,
      "inputs": [
        {
          "indexed": true,
          "internalType": "address",
          "name": "member",
          "type": "address"
        }
      ],
      "name": "MemberRemoved",
      "type": "event"
    },
    {
      "anonymous": false,
      "inputs": [
        {
          "indexed": true,
          "internalType": "address",
          "name": "contributor",
          "type": "address"
        },
        {
          "indexed": false,
          "internalType": "uint256",
          "name": "amount",
          "type": "uint256"
        }
      ],
      "name": "Withdraw",
      "type": "event"
    },
    {
      "inputs": [
        {
          "internalType": "address",
          "name": "newMember",
          "type": "address"
        }
      ],
      "name": "addMember",
      "outputs": [],
      "stateMutability": "nonpayable",
      "type": "function"
    },
    {
      "inputs": [
        {
          "internalType": "address",
          "name": "",
          "type": "address"
        }
      ],
      "name": "contributions",
      "outputs": [
        {
          "internalType": "uint256",
          "name": "",
          "type": "uint256"
        }
      ],
      "stateMutability": "view",
      "type": "function"
    },
    {
      "inputs": [],
      "name": "deposit",
      "outputs": [],
      "stateMutability": "payable",
      "type": "function"
    },
    {
      "inputs": [],
      "name": "emergencyWithdraw",
      "outputs": [],
      "stateMutability": "nonpayable",
      "type": "function"
    },
    {
      "inputs": [
        {
          "internalType": "address",
          "name": "contributor",
          "type": "address"
        }
      ],
      "name": "getContribution",
      "outputs": [
        {
          "internalType": "uint256",
          "name": "",
          "type": "uint256"
        }
      ],
      "stateMutability": "view",
      "type": "function"
    },
    {
      "inputs": [],
      "name": "getMemberCount",
      "outputs": [
        {
          "internalType": "uint256",
          "name": "",
          "type": "uint256"
        }
      ],
      "stateMutability": "view",
      "type": "function"
    },
    {
      "inputs": [
        {
          "internalType": "uint256",
          "name": "index",
          "type": "uint256"
        }
      ],
      "name": "getMemberDetails",
      "outputs": [
        {
          "internalType": "address",
          "name": "memberAddress",
          "type": "address"
        },
        {
          "internalType": "uint256",
          "name": "contribution",
          "type": "uint256"
        },
        {
          "internalType": "uint256",
          "name": "lastContribution",
          "type": "uint256"
        },
        {
          "internalType": "bool",
          "name": "isActive",
          "type": "bool"
        }
      ],
      "stateMutability": "view",
      "type": "function"
    },
    {
      "inputs": [],
      "name": "getSavingsGoal",
      "outputs": [
        {
          "internalType": "uint256",
          "name": "",
          "type": "uint256"
        }
      ],
      "stateMutability": "view",
      "type": "function"
    },
    {
      "inputs": [],
      "name": "getTotalBalance",
      "outputs": [
        {
          "internalType": "uint256",
          "name": "",
          "type": "uint256"
        }
      ],
      "stateMutability": "view",
      "type": "function"
    },
    {
      "inputs": [
        {
          "internalType": "address",
          "name": "",
          "type": "address"
        }
      ],
      "name": "isMember",
      "outputs": [
        {
          "internalType": "bool",
          "name": "",
          "type": "bool"
        }
      ],
      "stateMutability": "view",
      "type": "function"
    },
    {
      "inputs": [],
      "name": "memberCount",
      "outputs": [
        {
          "internalType": "uint256",
          "name": "",
          "type": "uint256"
        }
      ],
      "stateMutability": "view",
      "type": "function"
    },
    {
      "inputs": [
        {
          "internalType": "uint256",
          "name": "",
          "type": "uint256"
        }
      ],
      "name": "members",
      "outputs": [
        {
          "internalType": "address",
          "name": "memberAddress",
          "type": "address"
        },
        {
          "internalType": "uint256",
          "name": "contribution",
          "type": "uint256"
        },
        {
          "internalType": "uint256",
          "name": "lastContribution",
          "type": "uint256"
        },
        {
          "internalType": "bool",
          "name": "isActive",
          "type": "bool"
        }
      ],
      "stateMutability": "view",
      "type": "function"
    },
    {
      "inputs": [],
      "name": "owner",
      "outputs": [
        {
          "internalType": "address",
          "name": "",
          "type": "address"
        }
      ],
      "stateMutability": "view",
      "type": "function"
    },
    {
      "inputs": [
        {
          "internalType": "address",
          "name": "member",
          "type": "address"
        }
      ],
      "name": "removeMember",
      "outputs": [],
      "stateMutability": "nonpayable",
      "type": "function"
    },
    {
      "inputs": [],
      "name": "savingsGoal",
      "outputs": [
        {
          "internalType": "uint256",
          "name": "",
          "type": "uint256"
        }
      ],
      "stateMutability": "view",
      "type": "function"
    },
    {
      "inputs": [
        {
          "internalType": "uint256",
          "name": "newGoal",
          "type": "uint256"
        }
      ],
      "name": "setSavingsGoal",
      "outputs": [],
      "stateMutability": "nonpayable",
      "type": "function"
    },
    {
      "inputs": [],
      "name": "totalBalance",
      "outputs": [
        {
          "internalType": "uint256",
          "name": "",
          "type": "uint256"
        }
      ],
      "stateMutability": "view",
      "type": "function"
    },
    {
      "inputs": [
        {
          "internalType": "uint256",
          "name": "amount",
          "type": "uint256"
        }
      ],
      "name": "withdraw",
      "outputs": [],
      "stateMutability": "nonpayable",
      "type": "function"
    }
  ],
  "bytecode": "0x608060405234801561001057600080fd5b50336000806101000a81548173ffffffffffffffffffffffffffffffffffffffff021916908373ffffffffffffffffffffffffffffffffffffffff1602179055506001600260003373ffffffffffffffffffffffffffffffffffffffff1673ffffffffffffffffffffffffffffffffffffffff16815260200190815260200160002060006101000a81548160ff021916908315150217905550600660405180608001604052803373ffffffffffffffffffffffffffffffffffffffff1681526020016000815260200142815260200160011515815250908060018154018082558091505060019003906000526020600020906004020160009091909190915060008201518160000160006101000a81548173ffffffffffffffffffffffffffffffffffffffff021916908373ffffffffffffffffffffffffffffffffffffffff160217905550602082015181600101556040820151816002015560608201518160030160006101000a81548160ff02191690831515021790555050506001600581905550612098806101a36000396000f3fe6080604052600436106101095760003560e01c80638da5cb5b11610095578063ca6d56dc11610064578063ca6d56dc14610382578063cf1904ce146103ab578063cf97557d146103eb578063d0e30db014610416578063db2e21bc1461042057610109565b80638da5cb5b146102c4578063997072f7146102ef578063a230c5241461031a578063ad7a672f1461035757610109565b80632e1a7d4d116100dc5780632e1a7d4d146101ca57806331a93e8a146101f357806342e94c901461021c5780635daf08ca146102595780637f66752d1461029957610109565b80630b1ca49a1461010e57806311aee3801461013757806312b583491461016257806321eff7fc1461018d575b600080fd5b34801561011a57600080fd5b5061013560048036038101906101309190611715565b610437565b005b34801561014357600080fd5b5061014c610695565b604051610159919061175b565b60405180910390f35b34801561016e57600080fd5b5061017761069b565b604051610184919061175b565b60405180910390f35b34801561019957600080fd5b506101b460048036038101906101af9190611715565b6106a5565b6040516101c1919061175b565b60405180910390f35b3480156101d657600080fd5b506101f160048036038101906101ec91906117a2565b6106ee565b005b3480156101ff57600080fd5b5061021a600480360381019061021591906117a2565b610acc565b005b34801561022857600080fd5b50610243600480360381019061023e9190611715565b610bdf565b604051610250919061175b565b60405180910390f35b34801561026557600080fd5b50610280600480360381019061027b91906117a2565b610bf7565b60405161029094939291906117f9565b60405180910390f35b3480156102a557600080fd5b506102ae610c64565b6040516102bb919061175b565b60405180910390f35b3480156102d057600080fd5b506102d9610c6a565b6040516102e6919061183e565b60405180910390f35b3480156102fb57600080fd5b50610304610c8e565b604051610311919061175b565b60405180910390f35b34801561032657600080fd5b50610341600480360381019061033c9190611715565b610c98565b60405161034e9190611859565b60405180910390f35b34801561036357600080fd5b5061036c610cb8565b604051610379919061175b565b60405180910390f35b34801561038e57600080fd5b506103a960048036038101906103a49190611715565b610cbe565b005b3480156103b757600080fd5b506103d260048036038101906103cd91906117a2565b610f72565b6040516103e294939291906117f9565b60405180910390f35b3480156103f757600080fd5b50610400611099565b60405161040d919061175b565b60405180910390f35b61041e6110a3565b005b34801561042c57600080fd5b50610435611338565b005b60008054906101000a900473ffffffffffffffffffffffffffffffffffffffff1673ffffffffffffffffffffffffffffffffffffffff163373ffffffffffffffffffffffffffffffffffffffff16146104c5576040517f08c379a00000000000000000000000000000000000000000000000000000000081526004016104bc906118f7565b60405180910390fd5b600260008273ffffffffffffffffffffffffffffffffffffffff1673ffffffffffffffffffffffffffffffffffffffff16815260200190815260200160002060009054906101000a900460ff16610551576040517f08c379a000000000000000000000000000000000000000000000000000000000815260040161054890611963565b60405180910390fd5b60008054906101000a900473ffffffffffffffffffffffffffffffffffffffff1673ffffffffffffffffffffffffffffffffffffffff168173ffffffffffffffffffffffffffffffffffffffff16036105df576040517f08c379a00000000000000000000000000000000000000000000000000000000081526004016105d6906119cf565b60405180910390fd5b6000600260008373ffffffffffffffffffffffffffffffffffffffff1673ffffffffffffffffffffffffffffffffffffffff16815260200190815260200160002060006101000a81548160ff0219169083151502179055506005600081548092919061064a90611a1e565b91905055508073ffffffffffffffffffffffffffffffffffffffff167f6e76fb4c77256006d9c38ec7d82b45a8c8f3c27b1d6766fffc42dfb8de68449260405160405180910390a250565b60055481565b6000600354905090565b6000600160008373ffffffffffffffffffffffffffffffffffffffff1673ffffffffffffffffffffffffffffffffffffffff168152602001908152602001600020549050919050565b600260003373ffffffffffffffffffffffffffffffffffffffff1673ffffffffffffffffffffffffffffffffffffffff16815260200190815260200160002060009054906101000a900460ff1661077a576040517f08c379a000000000000000000000000000000000000000000000000000000000815260040161077190611ab9565b60405180910390fd5b600081116107bd576040517f08c379a00000000000000000000000000000000000000000000000000000000081526004016107b490611b4b565b60405180910390fd5b600160003373ffffffffffffffffffffffffffffffffffffffff1673ffffffffffffffffffffffffffffffffffffffff1681526020019081526020016000205481111561083f576040517f08c379a000000000000000000000000000000000000000000000000000000000815260040161083690611bb7565b60405180910390fd5b47811115610882576040517f08c379a000000000000000000000000000000000000000000000000000000000815260040161087990611c49565b60405180910390fd5b80600160003373ffffffffffffffffffffffffffffffffffffffff1673ffffffffffffffffffffffffffffffffffffffff16815260200190815260200160002060008282546108d19190611c69565b9250508190555080600360008282546108ea9190611c69565b9250508190555060005b6006805490508110156109cd573373ffffffffffffffffffffffffffffffffffffffff166006828154811061092c5761092b611c9d565b5b906000526020600020906004020160000160009054906101000a900473ffffffffffffffffffffffffffffffffffffffff1673ffffffffffffffffffffffffffffffffffffffff16036109ba57816006828154811061098e5761098d611c9d565b5b906000526020600020906004020160010160008282546109ae9190611c69565b925050819055506109cd565b80806109c590611ccc565b9150506108f4565b5060003373ffffffffffffffffffffffffffffffffffffffff16826040516109f490611d45565b60006040518083038185875af1925050503d8060008114610a31576040519150601f19603f3d011682016040523d82523d6000602084013e610a36565b606091505b5050905080610a7a576040517f08c379a0000000000000000000000000000000000000000000000000000000008152600401610a7190611da6565b60405180910390fd5b3373ffffffffffffffffffffffffffffffffffffffff167f884edad9ce6fa2440d8a54cc123490eb96d2768479d49ff9c7366125a942436483604051610ac0919061175b565b60405180910390a25050565b60008054906101000a900473ffffffffffffffffffffffffffffffffffffffff1673ffffffffffffffffffffffffffffffffffffffff163373ffffffffffffffffffffffffffffffffffffffff1614610b5a576040517f08c379a0000000000000000000000000000000000000000000000000000000008152600401610b51906118f7565b60405180910390fd5b6003548111610b9e576040517f08c379a0000000000000000000000000000000000000000000000000000000008152600401610b9590611e38565b60405180910390fd5b806004819055507f98679ff9866c849680b692778dc87c2ae50edf50974ee07b54d1bc42be5c35f081604051610bd4919061175b565b60405180910390a150565b60016020528060005260406000206000915090505481565b60068181548110610c0757600080fd5b90600052602060002090600402016000915090508060000160009054906101000a900473ffffffffffffffffffffffffffffffffffffffff16908060010154908060020154908060030160009054906101000a900460ff16905084565b60045481565b60008054906101000a900473ffffffffffffffffffffffffffffffffffffffff1681565b6000600554905090565b60026020528060005260406000206000915054906101000a900460ff1681565b60035481565b60008054906101000a900473ffffffffffffffffffffffffffffffffffffffff1673ffffffffffffffffffffffffffffffffffffffff163373ffffffffffffffffffffffffffffffffffffffff1614610d4c576040517f08c379a0000000000000000000000000000000000000000000000000000000008152600401610d43906118f7565b60405180910390fd5b600260008273ffffffffffffffffffffffffffffffffffffffff1673ffffffffffffffffffffffffffffffffffffffff16815260200190815260200160002060009054906101000a900460ff1615610dd9576040517f08c379a0000000000000000000000000000000000000000000000000000000008152600401610dd090611ea4565b60405180910390fd5b6001600260008373ffffffffffffffffffffffffffffffffffffffff1673ffffffffffffffffffffffffffffffffffffffff16815260200190815260200160002060006101000a81548160ff021916908315150217905550600660405180608001604052808373ffffffffffffffffffffffffffffffffffffffff1681526020016000815260200142815260200160011515815250908060018154018082558091505060019003906000526020600020906004020160009091909190915060008201518160000160006101000a81548173ffffffffffffffffffffffffffffffffffffffff021916908373ffffffffffffffffffffffffffffffffffffffff160217905550602082015181600101556040820151816002015560608201518160030160006101000a81548160ff021916908315150217905550505060056000815480929190610f2790611ccc565b91905055508073ffffffffffffffffffffffffffffffffffffffff167fb251eb052afc73ffd02ffe85ad79990a8b3fed60d76dbc2fa2fdd7123dffd91460405160405180910390a250565b6000806000806006805490508510610fbf576040517f08c379a0000000000000000000000000000000000000000000000000000000008152600401610fb690611f10565b60405180910390fd5b600060068681548110610fd557610fd4611c9d565b5b90600052602060002090600402016040518060800160405290816000820160009054906101000a900473ffffffffffffffffffffffffffffffffffffffff1673ffffffffffffffffffffffffffffffffffffffff1673ffffffffffffffffffffffffffffffffffffffff16815260200160018201548152602001600282015481526020016003820160009054906101000a900460ff161515151581525050905080600001518160200151826040015183606001519450945094509450509193509193565b6000600454905090565b600260003373ffffffffffffffffffffffffffffffffffffffff1673ffffffffffffffffffffffffffffffffffffffff16815260200190815260200160002060009054906101000a900460ff1661112f576040517f08c379a000000000000000000000000000000000000000000000000000000000815260040161112690611ab9565b60405180910390fd5b60003411611172576040517f08c379a000000000000000000000000000000000000000000000000000000000815260040161116990611fa2565b60405180910390fd5b34600160003373ffffffffffffffffffffffffffffffffffffffff1673ffffffffffffffffffffffffffffffffffffffff16815260200190815260200160002060008282546111c19190611fc2565b9250508190555034600360008282546111da9190611fc2565b9250508190555060005b6006805490508110156112e7573373ffffffffffffffffffffffffffffffffffffffff166006828154811061121c5761121b611c9d565b5b906000526020600020906004020160000160009054906101000a900473ffffffffffffffffffffffffffffffffffffffff1673ffffffffffffffffffffffffffffffffffffffff16036112d457346006828154811061127e5761127d611c9d565b5b9060005260206000209060040201600101600082825461129e9190611fc2565b9250508190555042600682815481106112ba576112b9611c9d565b5b9060005260206000209060040201600201819055506112e7565b80806112df90611ccc565b9150506111e4565b503373ffffffffffffffffffffffffffffffffffffffff167fe1fffcc4923d04b559f4d29a8bfc6cda04eb5b0d3c460751c2402c5c5cc9109c3460405161132e919061175b565b60405180910390a2565b600260003373ffffffffffffffffffffffffffffffffffffffff1673ffffffffffffffffffffffffffffffffffffffff16815260200190815260200160002060009054906101000a900460ff166113c4576040517f08c379a00000000000000000000000000000000000000000000000000000000081526004016113bb90611ab9565b60405180910390fd5b6000600160003373ffffffffffffffffffffffffffffffffffffffff1673ffffffffffffffffffffffffffffffffffffffff1681526020019081526020016000205411611446576040517f08c379a000000000000000000000000000000000000000000000000000000000815260040161143d90612042565b60405180910390fd5b6000600160003373ffffffffffffffffffffffffffffffffffffffff1673ffffffffffffffffffffffffffffffffffffffff1681526020019081526020016000205490506000600160003373ffffffffffffffffffffffffffffffffffffffff1673ffffffffffffffffffffffffffffffffffffffff1681526020019081526020016000208190555080600360008282546114e19190611c69565b9250508190555060005b6006805490508110156115b3573373ffffffffffffffffffffffffffffffffffffffff166006828154811061152357611522611c9d565b5b906000526020600020906004020160000160009054906101000a900473ffffffffffffffffffffffffffffffffffffffff1673ffffffffffffffffffffffffffffffffffffffff16036115a05760006006828154811061158657611585611c9d565b5b9060005260206000209060040201600101819055506115b3565b80806115ab90611ccc565b9150506114eb565b5060003373ffffffffffffffffffffffffffffffffffffffff16826040516115da90611d45565b60006040518083038185875af1925050503d8060008114611617576040519150601f19603f3d011682016040523d82523d6000602084013e61161c565b606091505b5050905080611660576040517f08c379a000000000000000000000000000000000000000000000000000000000815260040161165790611da6565b60405180910390fd5b3373ffffffffffffffffffffffffffffffffffffffff167f5fafa99d0643513820be26656b45130b01e1c03062e1266bf36f88cbd3bd9695836040516116a6919061175b565b60405180910390a25050565b600080fd5b600073ffffffffffffffffffffffffffffffffffffffff82169050919050565b60006116e2826116b7565b9050919050565b6116f2816116d7565b81146116fd57600080fd5b50565b60008135905061170f816116e9565b92915050565b60006020828403121561172b5761172a6116b2565b5b600061173984828501611700565b91505092915050565b6000819050919050565b61175581611742565b82525050565b6000602082019050611770600083018461174c565b92915050565b61177f81611742565b811461178a57600080fd5b50565b60008135905061179c81611776565b92915050565b6000602082840312156117b8576117b76116b2565b5b60006117c68482850161178d565b91505092915050565b6117d8816116d7565b82525050565b60008115159050919050565b6117f3816117de565b82525050565b600060808201905061180e60008301876117cf565b61181b602083018661174c565b611828604083018561174c565b61183560608301846117ea565b95945050505050565b600060208201905061185360008301846117cf565b92915050565b600060208201905061186e60008301846117ea565b92915050565b600082825260208201905092915050565b7f4f6e6c79206f776e65722063616e2063616c6c20746869732066756e6374696f60008201527f6e00000000000000000000000000000000000000000000000000000000000000602082015250565b60006118e1602183611874565b91506118ec82611885565b604082019050919050565b60006020820190508181036000830152611910816118d4565b9050919050565b7f41646472657373206973206e6f742061206d656d626572000000000000000000600082015250565b600061194d601783611874565b915061195882611917565b602082019050919050565b6000602082019050818103600083015261197c81611940565b9050919050565b7f43616e6e6f742072656d6f7665206f776e657200000000000000000000000000600082015250565b60006119b9601383611874565b91506119c482611983565b602082019050919050565b600060208201905081810360008301526119e8816119ac565b9050919050565b7f4e487b7100000000000000000000000000000000000000000000000000000000600052601160045260246000fd5b6000611a2982611742565b915060008203611a3c57611a3b6119ef565b5b600182039050919050565b7f4f6e6c79206d656d626572732063616e2063616c6c20746869732066756e637460008201527f696f6e0000000000000000000000000000000000000000000000000000000000602082015250565b6000611aa3602383611874565b9150611aae82611a47565b604082019050919050565b60006020820190508181036000830152611ad281611a96565b9050919050565b7f5769746864726177616c20616d6f756e74206d7573742062652067726561746560008201527f72207468616e2030000000000000000000000000000000000000000000000000602082015250565b6000611b35602883611874565b9150611b4082611ad9565b604082019050919050565b60006020820190508181036000830152611b6481611b28565b9050919050565b7f496e73756666696369656e742062616c616e6365000000000000000000000000600082015250565b6000611ba1601483611874565b9150611bac82611b6b565b602082019050919050565b60006020820190508181036000830152611bd081611b94565b9050919050565b7f436f6e74726163742068617320696e73756666696369656e742062616c616e6360008201527f6500000000000000000000000000000000000000000000000000000000000000602082015250565b6000611c33602183611874565b9150611c3e82611bd7565b604082019050919050565b60006020820190508181036000830152611c6281611c26565b9050919050565b6000611c7482611742565b9150611c7f83611742565b9250828203905081811115611c9757611c966119ef565b5b92915050565b7f4e487b7100000000000000000000000000000000000000000000000000000000600052603260045260246000fd5b6000611cd782611742565b91507fffffffffffffffffffffffffffffffffffffffffffffffffffffffffffffffff8203611d0957611d086119ef565b5b600182019050919050565b600081905092915050565b50565b6000611d2f600083611d14565b9150611d3a82611d1f565b600082019050919050565b6000611d5082611d22565b9150819050919050565b7f5472616e73666572206661696c65640000000000000000000000000000000000600082015250565b6000611d90600f83611874565b9150611d9b82611d5a565b602082019050919050565b60006020820190508181036000830152611dbf81611d83565b9050919050565b7f4e657720676f616c206d7573742062652067726561746572207468616e20637560008201527f7272656e742062616c616e636500000000000000000000000000000000000000602082015250565b6000611e22602d83611874565b9150611e2d82611dc6565b604082019050919050565b60006020820190508181036000830152611e5181611e15565b9050919050565b7f4164647265737320697320616c72656164792061206d656d6265720000000000600082015250565b6000611e8e601b83611874565b9150611e9982611e58565b602082019050919050565b60006020820190508181036000830152611ebd81611e81565b9050919050565b7f496e76616c6964206d656d62657220696e646578000000000000000000000000600082015250565b6000611efa601483611874565b9150611f0582611ec4565b602082019050919050565b60006020820190508181036000830152611f2981611eed565b9050919050565b7f4465706f73697420616d6f756e74206d7573742062652067726561746572207460008201527f68616e2030000000000000000000000000000000000000000000000000000000602082015250565b6000611f8c602583611874565b9150611f9782611f30565b604082019050919050565b60006020820190508181036000830152611fbb81611f7f565b9050919050565b6000611fcd82611742565b9150611fd883611742565b9250828201905080821115611ff057611fef6119ef565b5b92915050565b7f4e6f2062616c616e636520746f20776974686472617700000000000000000000600082015250565b600061202c601683611874565b915061203782611ff6565b602082019050919050565b6000602082019050818103600083015261205b8161201f565b905091905056fea2646970667358221220faa0731d91fa0e7eeaedaf36e7da122190d10ab4069def35b6824de317a451ed64736f6c63430008130033",
  "linkReferences": {},
  "deployedLinkReferences": {}
}